{
  "_format": "hh-sol-artifact-1",
  "contractName": "lottery",
  "sourceName": "contracts/lottery.sol",
  "abi": [
    {
      "inputs": [],
      "stateMutability": "nonpayable",
      "type": "constructor"
    },
    {
      "inputs": [],
      "name": "declareWinner",
      "outputs": [
        {
          "internalType": "address",
          "name": "",
          "type": "address"
        }
      ],
      "stateMutability": "nonpayable",
      "type": "function"
    },
    {
      "inputs": [],
      "name": "getBalance",
      "outputs": [
        {
          "internalType": "uint256",
          "name": "",
          "type": "uint256"
        }
      ],
      "stateMutability": "view",
      "type": "function"
    },
    {
      "inputs": [],
      "name": "manager_address",
      "outputs": [
        {
          "internalType": "address",
          "name": "",
          "type": "address"
        }
      ],
      "stateMutability": "view",
      "type": "function"
    },
    {
      "inputs": [],
      "name": "random",
      "outputs": [
        {
          "internalType": "uint256",
          "name": "",
          "type": "uint256"
        }
      ],
      "stateMutability": "view",
      "type": "function"
    },
    {
      "inputs": [],
      "name": "totalUser",
      "outputs": [
        {
          "internalType": "uint256",
          "name": "",
          "type": "uint256"
        }
      ],
      "stateMutability": "view",
      "type": "function"
    },
    {
      "inputs": [
        {
          "internalType": "uint256",
          "name": "",
          "type": "uint256"
        }
      ],
      "name": "users",
      "outputs": [
        {
          "internalType": "address payable",
          "name": "",
          "type": "address"
        }
      ],
      "stateMutability": "view",
      "type": "function"
    },
    {
      "stateMutability": "payable",
      "type": "receive"
    }
  ],
  "bytecode": "0x60806040523480156200001157600080fd5b50336000806101000a81548173ffffffffffffffffffffffffffffffffffffffff021916908373ffffffffffffffffffffffffffffffffffffffff160217905550620000be60008054906101000a900473ffffffffffffffffffffffffffffffffffffffff166040518060400160405280601c81526020017f636f6e7472616374206465706c6f796564206279206d616e6167657200000000815250620000c460201b6200068d1760201c565b620002b0565b620001668282604051602401620000dd929190620001e5565b6040516020818303038152906040527f759f86bb000000000000000000000000000000000000000000000000000000007bffffffffffffffffffffffffffffffffffffffffffffffffffffffff19166020820180517bffffffffffffffffffffffffffffffffffffffffffffffffffffffff83818316178352505050506200016a60201b60201c565b5050565b60008151905060006a636f6e736f6c652e6c6f679050602083016000808483855afa5050505050565b6200019e8162000235565b82525050565b6000620001b18262000219565b620001bd818562000224565b9350620001cf81856020860162000269565b620001da816200029f565b840191505092915050565b6000604082019050620001fc600083018562000193565b8181036020830152620002108184620001a4565b90509392505050565b600081519050919050565b600082825260208201905092915050565b6000620002428262000249565b9050919050565b600073ffffffffffffffffffffffffffffffffffffffff82169050919050565b60005b83811015620002895780820151818401526020810190506200026c565b8381111562000299576000848401525b50505050565b6000601f19601f8301169050919050565b610cd380620002c06000396000f3fe6080604052600436106100595760003560e01c806312065fe01461015757806314034bd2146101825780631800ed8e146101ad578063365b98b2146101d85780635ec01e4d14610215578063e1604b701461024057610152565b3661015257662386f26fc1000034146100a7576040517f08c379a000000000000000000000000000000000000000000000000000000000815260040161009e90610a4f565b60405180910390fd5b6001339080600181540180825580915050600190039060005260206000200160009091909190916101000a81548173ffffffffffffffffffffffffffffffffffffffff021916908373ffffffffffffffffffffffffffffffffffffffff1602179055506101506040518060400160405280601e81526020017f6d6f6e6579207265636569766564207573657220616464726573732069730000815250336001805490504761026b565b005b600080fd5b34801561016357600080fd5b5061016c61030d565b6040516101799190610aaf565b60405180910390f35b34801561018e57600080fd5b506101976103a4565b6040516101a4919061097d565b60405180910390f35b3480156101b957600080fd5b506101c26105e3565b6040516101cf919061097d565b60405180910390f35b3480156101e457600080fd5b506101ff60048036038101906101fa919061080e565b610607565b60405161020c9190610998565b60405180910390f35b34801561022157600080fd5b5061022a610646565b6040516102379190610aaf565b60405180910390f35b34801561024c57600080fd5b50610255610680565b6040516102629190610aaf565b60405180910390f35b6103078484848460405160240161028594939291906109e3565b6040516020818303038152906040527fdaa394bd000000000000000000000000000000000000000000000000000000007bffffffffffffffffffffffffffffffffffffffffffffffffffffffff19166020820180517bffffffffffffffffffffffffffffffffffffffffffffffffffffffff8381831617835250505050610729565b50505050565b60008060009054906101000a900473ffffffffffffffffffffffffffffffffffffffff1673ffffffffffffffffffffffffffffffffffffffff163373ffffffffffffffffffffffffffffffffffffffff161461039e576040517f08c379a000000000000000000000000000000000000000000000000000000000815260040161039590610a6f565b60405180910390fd5b47905090565b60008060009054906101000a900473ffffffffffffffffffffffffffffffffffffffff1673ffffffffffffffffffffffffffffffffffffffff163373ffffffffffffffffffffffffffffffffffffffff1614610435576040517f08c379a000000000000000000000000000000000000000000000000000000000815260040161042c90610a2f565b60405180910390fd5b60036001805490501161047d576040517f08c379a000000000000000000000000000000000000000000000000000000000815260040161047490610a8f565b60405180910390fd5b6000610487610646565b90506000806001805490508361049d9190610b71565b9050600181815481106104d9577f4e487b7100000000000000000000000000000000000000000000000000000000600052603260045260246000fd5b9060005260206000200160009054906101000a900473ffffffffffffffffffffffffffffffffffffffff1691508173ffffffffffffffffffffffffffffffffffffffff166108fc61052861030d565b9081150290604051600060405180830381858888f19350505050158015610553573d6000803e3d6000fd5b50600067ffffffffffffffff811115610595577f4e487b7100000000000000000000000000000000000000000000000000000000600052604160045260246000fd5b6040519080825280602002602001820160405280156105c35781602001602082028036833780820191505090505b50600190805190602001906105d9929190610752565b5081935050505090565b60008054906101000a900473ffffffffffffffffffffffffffffffffffffffff1681565b6001818154811061061757600080fd5b906000526020600020016000915054906101000a900473ffffffffffffffffffffffffffffffffffffffff1681565b6000444260018054905060405160200161066293929190610940565b6040516020818303038152906040528051906020012060001c905090565b6000600180549050905090565b61072582826040516024016106a39291906109b3565b6040516020818303038152906040527f759f86bb000000000000000000000000000000000000000000000000000000007bffffffffffffffffffffffffffffffffffffffffffffffffffffffff19166020820180517bffffffffffffffffffffffffffffffffffffffffffffffffffffffff8381831617835250505050610729565b5050565b60008151905060006a636f6e736f6c652e6c6f679050602083016000808483855afa5050505050565b8280548282559060005260206000209081019282156107cb579160200282015b828111156107ca5782518260006101000a81548173ffffffffffffffffffffffffffffffffffffffff021916908373ffffffffffffffffffffffffffffffffffffffff16021790555091602001919060010190610772565b5b5090506107d891906107dc565b5090565b5b808211156107f55760008160009055506001016107dd565b5090565b60008135905061080881610c86565b92915050565b60006020828403121561082057600080fd5b600061082e848285016107f9565b91505092915050565b61084081610af8565b82525050565b61084f81610ae6565b82525050565b600061086082610aca565b61086a8185610ad5565b935061087a818560208601610b34565b61088381610bd1565b840191505092915050565b600061089b601f83610ad5565b91506108a682610be2565b602082019050919050565b60006108be601a83610ad5565b91506108c982610c0b565b602082019050919050565b60006108e1601f83610ad5565b91506108ec82610c34565b602082019050919050565b6000610904602083610ad5565b915061090f82610c5d565b602082019050919050565b61092381610b2a565b82525050565b61093a61093582610b2a565b610b67565b82525050565b600061094c8286610929565b60208201915061095c8285610929565b60208201915061096c8284610929565b602082019150819050949350505050565b60006020820190506109926000830184610846565b92915050565b60006020820190506109ad6000830184610837565b92915050565b60006040820190506109c86000830185610846565b81810360208301526109da8184610855565b90509392505050565b600060808201905081810360008301526109fd8187610855565b9050610a0c6020830186610846565b610a19604083018561091a565b610a26606083018461091a565b95945050505050565b60006020820190508181036000830152610a488161088e565b9050919050565b60006020820190508181036000830152610a68816108b1565b9050919050565b60006020820190508181036000830152610a88816108d4565b9050919050565b60006020820190508181036000830152610aa8816108f7565b9050919050565b6000602082019050610ac4600083018461091a565b92915050565b600081519050919050565b600082825260208201905092915050565b6000610af182610b0a565b9050919050565b6000610b0382610b0a565b9050919050565b600073ffffffffffffffffffffffffffffffffffffffff82169050919050565b6000819050919050565b60005b83811015610b52578082015181840152602081019050610b37565b83811115610b61576000848401525b50505050565b6000819050919050565b6000610b7c82610b2a565b9150610b8783610b2a565b925082610b9757610b96610ba2565b5b828206905092915050565b7f4e487b7100000000000000000000000000000000000000000000000000000000600052601260045260246000fd5b6000601f19601f8301169050919050565b7f6f6e6c79206d616e616765722063616e206465636c6172652077696e6e657200600082015250565b7f7061796d656e74206d75737420626520302e3031206574686572000000000000600082015250565b7f6f6e6c79206d616e616765722063616e206163636573732062616c616e636500600082015250565b7f746f74616c20757365722073686f756c64206265206d6f7265207468656e2033600082015250565b610c8f81610b2a565b8114610c9a57600080fd5b5056fea264697066735822122096a70ad4a3d291dc580f63b8f201f460ae09026aa74fa9906192c58b9206a7d464736f6c63430008040033",
  "linkReferences": {},
  "deployedLinkReferences": {}
}